{
  "_format": "hh-sol-artifact-1",
  "contractName": "CSAMM",
  "sourceName": "contracts/Constant_sum.sol",
  "abi": [
    {
      "inputs": [
        {
          "internalType": "address",
          "name": "_token0",
          "type": "address"
        },
        {
          "internalType": "address",
          "name": "_token1",
          "type": "address"
        }
      ],
      "stateMutability": "nonpayable",
      "type": "constructor"
    },
    {
      "inputs": [
        {
          "internalType": "uint256",
          "name": "_amount0",
          "type": "uint256"
        },
        {
          "internalType": "uint256",
          "name": "_amount1",
          "type": "uint256"
        }
      ],
      "name": "addLiquidity",
      "outputs": [
        {
          "internalType": "uint256",
          "name": "shares",
          "type": "uint256"
        }
      ],
      "stateMutability": "nonpayable",
      "type": "function"
    },
    {
      "inputs": [
        {
          "internalType": "address",
          "name": "",
          "type": "address"
        }
      ],
      "name": "balanceOf",
      "outputs": [
        {
          "internalType": "uint256",
          "name": "",
          "type": "uint256"
        }
      ],
      "stateMutability": "view",
      "type": "function"
    },
    {
      "inputs": [
        {
          "internalType": "uint256",
          "name": "_shares",
          "type": "uint256"
        }
      ],
      "name": "removeLiquidity",
      "outputs": [
        {
          "internalType": "uint256",
          "name": "d0",
          "type": "uint256"
        },
        {
          "internalType": "uint256",
          "name": "d1",
          "type": "uint256"
        }
      ],
      "stateMutability": "nonpayable",
      "type": "function"
    },
    {
      "inputs": [],
      "name": "reserve0",
      "outputs": [
        {
          "internalType": "uint256",
          "name": "",
          "type": "uint256"
        }
      ],
      "stateMutability": "view",
      "type": "function"
    },
    {
      "inputs": [],
      "name": "reserve1",
      "outputs": [
        {
          "internalType": "uint256",
          "name": "",
          "type": "uint256"
        }
      ],
      "stateMutability": "view",
      "type": "function"
    },
    {
      "inputs": [
        {
          "internalType": "address",
          "name": "_tokenIn",
          "type": "address"
        },
        {
          "internalType": "uint256",
          "name": "_amountIn",
          "type": "uint256"
        }
      ],
      "name": "swap",
      "outputs": [
        {
          "internalType": "uint256",
          "name": "amountOut",
          "type": "uint256"
        }
      ],
      "stateMutability": "nonpayable",
      "type": "function"
    },
    {
      "inputs": [],
      "name": "token0",
      "outputs": [
        {
          "internalType": "contract IERC20",
          "name": "",
          "type": "address"
        }
      ],
      "stateMutability": "view",
      "type": "function"
    },
    {
      "inputs": [],
      "name": "token1",
      "outputs": [
        {
          "internalType": "contract IERC20",
          "name": "",
          "type": "address"
        }
      ],
      "stateMutability": "view",
      "type": "function"
    },
    {
      "inputs": [],
      "name": "totalSupply",
      "outputs": [
        {
          "internalType": "uint256",
          "name": "",
          "type": "uint256"
        }
      ],
      "stateMutability": "view",
      "type": "function"
    }
  ],
  "bytecode": "0x60c060405234801561001057600080fd5b506040516113e23803806113e283398181016040528101906100329190610104565b8173ffffffffffffffffffffffffffffffffffffffff1660808173ffffffffffffffffffffffffffffffffffffffff16815250508073ffffffffffffffffffffffffffffffffffffffff1660a08173ffffffffffffffffffffffffffffffffffffffff16815250505050610144565b600080fd5b600073ffffffffffffffffffffffffffffffffffffffff82169050919050565b60006100d1826100a6565b9050919050565b6100e1816100c6565b81146100ec57600080fd5b50565b6000815190506100fe816100d8565b92915050565b6000806040838503121561011b5761011a6100a1565b5b6000610129858286016100ef565b925050602061013a858286016100ef565b9150509250929050565b60805160a05161121e6101c46000396000818161035c015281816104a4015281816105e5015281816107b00152818161089d0152818161090b0152610b3b0152600081816101f1015281816102b301528181610403015281816105470152818161075b01528181610841015281816108be01526108ea015261121e6000f3fe608060405234801561001057600080fd5b50600436106100935760003560e01c806370a082311161006657806370a08231146101105780639c8f9f23146101405780639cd441da14610171578063d004f0f7146101a1578063d21220a7146101d157610093565b80630dfe16811461009857806318160ddd146100b6578063443cb4bc146100d45780635a76f25e146100f2575b600080fd5b6100a06101ef565b6040516100ad9190610cd4565b60405180910390f35b6100be610213565b6040516100cb9190610d08565b60405180910390f35b6100dc610219565b6040516100e99190610d08565b60405180910390f35b6100fa61021f565b6040516101079190610d08565b60405180910390f35b61012a60048036038101906101259190610d66565b610225565b6040516101379190610d08565b60405180910390f35b61015a60048036038101906101559190610dbf565b61023d565b604051610168929190610dec565b60405180910390f35b61018b60048036038101906101869190610e15565b6103ff565b6040516101989190610d08565b60405180910390f35b6101bb60048036038101906101b69190610e55565b610757565b6040516101c89190610d08565b60405180910390f35b6101d9610b39565b6040516101e69190610cd4565b60405180910390f35b7f000000000000000000000000000000000000000000000000000000000000000081565b60025481565b60005481565b60015481565b60036020528060005260406000206000915090505481565b600080600254836000546102519190610ec4565b61025b9190610f35565b91506002548360015461026e9190610ec4565b6102789190610f35565b90506102843384610b5d565b6102a8826000546102959190610f66565b826001546102a39190610f66565b610bd0565b6000821115610351577f000000000000000000000000000000000000000000000000000000000000000073ffffffffffffffffffffffffffffffffffffffff1663a9059cbb33846040518363ffffffff1660e01b815260040161030c929190610fa9565b6020604051808303816000875af115801561032b573d6000803e3d6000fd5b505050506040513d601f19601f8201168201806040525081019061034f919061100a565b505b60008111156103fa577f000000000000000000000000000000000000000000000000000000000000000073ffffffffffffffffffffffffffffffffffffffff1663a9059cbb33836040518363ffffffff1660e01b81526004016103b5929190610fa9565b6020604051808303816000875af11580156103d4573d6000803e3d6000fd5b505050506040513d601f19601f820116820180604052508101906103f8919061100a565b505b915091565b60007f000000000000000000000000000000000000000000000000000000000000000073ffffffffffffffffffffffffffffffffffffffff166323b872dd3330866040518463ffffffff1660e01b815260040161045e93929190611037565b6020604051808303816000875af115801561047d573d6000803e3d6000fd5b505050506040513d601f19601f820116820180604052508101906104a1919061100a565b507f000000000000000000000000000000000000000000000000000000000000000073ffffffffffffffffffffffffffffffffffffffff166323b872dd3330856040518463ffffffff1660e01b81526004016104ff93929190611037565b6020604051808303816000875af115801561051e573d6000803e3d6000fd5b505050506040513d601f19601f82011682018060405250810190610542919061100a565b5060007f000000000000000000000000000000000000000000000000000000000000000073ffffffffffffffffffffffffffffffffffffffff166370a08231306040518263ffffffff1660e01b815260040161059e919061106e565b602060405180830381865afa1580156105bb573d6000803e3d6000fd5b505050506040513d601f19601f820116820180604052508101906105df919061109e565b905060007f000000000000000000000000000000000000000000000000000000000000000073ffffffffffffffffffffffffffffffffffffffff166370a08231306040518263ffffffff1660e01b815260040161063c919061106e565b602060405180830381865afa158015610659573d6000803e3d6000fd5b505050506040513d601f19601f8201168201806040525081019061067d919061109e565b9050600080548361068e9190610f66565b90506000600154836106a09190610f66565b9050600060025411156106e7576001546000546106bd91906110cb565b60025482846106cc91906110cb565b6106d69190610ec4565b6106e09190610f35565b94506106f6565b80826106f391906110cb565b94505b60008511610739576040517f08c379a00000000000000000000000000000000000000000000000000000000081526004016107309061115c565b60405180910390fd5b6107433386610be2565b61074d8484610bd0565b5050505092915050565b60007f000000000000000000000000000000000000000000000000000000000000000073ffffffffffffffffffffffffffffffffffffffff168373ffffffffffffffffffffffffffffffffffffffff1614806107fe57507f000000000000000000000000000000000000000000000000000000000000000073ffffffffffffffffffffffffffffffffffffffff168373ffffffffffffffffffffffffffffffffffffffff16145b61083d576040517f08c379a0000000000000000000000000000000000000000000000000000000008152600401610834906111c8565b60405180910390fd5b60007f000000000000000000000000000000000000000000000000000000000000000073ffffffffffffffffffffffffffffffffffffffff168473ffffffffffffffffffffffffffffffffffffffff16149050600080600080846108e8577f00000000000000000000000000000000000000000000000000000000000000007f0000000000000000000000000000000000000000000000000000000000000000600154600054610931565b7f00000000000000000000000000000000000000000000000000000000000000007f00000000000000000000000000000000000000000000000000000000000000006000546001545b93509350935093508373ffffffffffffffffffffffffffffffffffffffff166323b872dd33308a6040518463ffffffff1660e01b815260040161097693929190611037565b6020604051808303816000875af1158015610995573d6000803e3d6000fd5b505050506040513d601f19601f820116820180604052508101906109b9919061100a565b506000828573ffffffffffffffffffffffffffffffffffffffff166370a08231306040518263ffffffff1660e01b81526004016109f6919061106e565b602060405180830381865afa158015610a13573d6000803e3d6000fd5b505050506040513d601f19601f82011682018060405250810190610a37919061109e565b610a419190610f66565b90506103e86103e582610a549190610ec4565b610a5e9190610f35565b965060008087610a85578884610a749190610f66565b8386610a8091906110cb565b610a9e565b8285610a9191906110cb565b8985610a9d9190610f66565b5b91509150610aac8282610bd0565b8573ffffffffffffffffffffffffffffffffffffffff1663a9059cbb338b6040518363ffffffff1660e01b8152600401610ae7929190610fa9565b6020604051808303816000875af1158015610b06573d6000803e3d6000fd5b505050506040513d601f19601f82011682018060405250810190610b2a919061100a565b50505050505050505092915050565b7f000000000000000000000000000000000000000000000000000000000000000081565b80600360008473ffffffffffffffffffffffffffffffffffffffff1673ffffffffffffffffffffffffffffffffffffffff1681526020019081526020016000206000828254610bac9190610f66565b925050819055508060026000828254610bc59190610f66565b925050819055505050565b81600081905550806001819055505050565b80600360008473ffffffffffffffffffffffffffffffffffffffff1673ffffffffffffffffffffffffffffffffffffffff1681526020019081526020016000206000828254610c3191906110cb565b925050819055508060026000828254610c4a91906110cb565b925050819055505050565b600073ffffffffffffffffffffffffffffffffffffffff82169050919050565b6000819050919050565b6000610c9a610c95610c9084610c55565b610c75565b610c55565b9050919050565b6000610cac82610c7f565b9050919050565b6000610cbe82610ca1565b9050919050565b610cce81610cb3565b82525050565b6000602082019050610ce96000830184610cc5565b92915050565b6000819050919050565b610d0281610cef565b82525050565b6000602082019050610d1d6000830184610cf9565b92915050565b600080fd5b6000610d3382610c55565b9050919050565b610d4381610d28565b8114610d4e57600080fd5b50565b600081359050610d6081610d3a565b92915050565b600060208284031215610d7c57610d7b610d23565b5b6000610d8a84828501610d51565b91505092915050565b610d9c81610cef565b8114610da757600080fd5b50565b600081359050610db981610d93565b92915050565b600060208284031215610dd557610dd4610d23565b5b6000610de384828501610daa565b91505092915050565b6000604082019050610e016000830185610cf9565b610e0e6020830184610cf9565b9392505050565b60008060408385031215610e2c57610e2b610d23565b5b6000610e3a85828601610daa565b9250506020610e4b85828601610daa565b9150509250929050565b60008060408385031215610e6c57610e6b610d23565b5b6000610e7a85828601610d51565b9250506020610e8b85828601610daa565b9150509250929050565b7f4e487b7100000000000000000000000000000000000000000000000000000000600052601160045260246000fd5b6000610ecf82610cef565b9150610eda83610cef565b9250828202610ee881610cef565b91508282048414831517610eff57610efe610e95565b5b5092915050565b7f4e487b7100000000000000000000000000000000000000000000000000000000600052601260045260246000fd5b6000610f4082610cef565b9150610f4b83610cef565b925082610f5b57610f5a610f06565b5b828204905092915050565b6000610f7182610cef565b9150610f7c83610cef565b9250828203905081811115610f9457610f93610e95565b5b92915050565b610fa381610d28565b82525050565b6000604082019050610fbe6000830185610f9a565b610fcb6020830184610cf9565b9392505050565b60008115159050919050565b610fe781610fd2565b8114610ff257600080fd5b50565b60008151905061100481610fde565b92915050565b6000602082840312156110205761101f610d23565b5b600061102e84828501610ff5565b91505092915050565b600060608201905061104c6000830186610f9a565b6110596020830185610f9a565b6110666040830184610cf9565b949350505050565b60006020820190506110836000830184610f9a565b92915050565b60008151905061109881610d93565b92915050565b6000602082840312156110b4576110b3610d23565b5b60006110c284828501611089565b91505092915050565b60006110d682610cef565b91506110e183610cef565b92508282019050808211156110f9576110f8610e95565b5b92915050565b600082825260208201905092915050565b7f736861726573203d203000000000000000000000000000000000000000000000600082015250565b6000611146600a836110ff565b915061115182611110565b602082019050919050565b6000602082019050818103600083015261117581611139565b9050919050565b7f696e76616c696420746f6b656e00000000000000000000000000000000000000600082015250565b60006111b2600d836110ff565b91506111bd8261117c565b602082019050919050565b600060208201905081810360008301526111e1816111a5565b905091905056fea26469706673582212208f542f7bca80dab3c41d92dae38910d207b7463ccd82a2fbed9c85bb548d12c064736f6c634300081c0033",
  "linkReferences": {},
  "deployedLinkReferences": {}
}